:100000000C9434000C9451000C9451000C94510049
:100010000C9451000C9451000C9451000C9451001C
:100020000C9451000C9451000C9451000C9451000C
:100030000C9451000C9451000C9451000C945100FC
:100040000C9451000C9451000C9451000C945100EC
:100050000C9451000C9451000C9451000C945100DC
:100060000C9451000C94510011241FBECFEFD8E026
:10007000DEBFCDBF12E0A0E0B1E0E0EEF7E002C0ED
:1000800005900D92A03DB107D9F722E0A0EDB2E0B6
:1000900001C01D92A63DB207E1F70E9453000C94E7
:1000A000EE030C940000CF93DF93CDB7DEB72A9711
:1000B0000FB6F894DEBF0FBECDBF98878F837A87C7
:1000C00069871A8219821E821D8263C08E818F9376
:1000D0008D818F938DEB92E0892F8F938DEB92E042
:1000E0008F930E9406010F900F900F900F908981BF
:1000F0009A819C838B8324C08B819C818E5F9E4FD1
:10010000FC0180818823B9F08B819C8125E130E05E
:10011000B9010E94DE00292F2F938F9389EC92E082
:10012000892F8F9389EC92E08F930E9406010F90A4
:100130000F900F900F908B819C8101969C838B83F5
:100140008091BB029091BC022B813C81281739071A
:100150006CF4209100013091010189819A81820F14
:10016000931F2B813C812817390734F28EEC92E0E3
:100170000E941C01809100019091010129813A8126
:10018000820F931F9A8389838D819E8101969E831E
:100190008D838091BB029091BC0229813A812817FE
:1001A00039070CF493CF80E090E02A960FB6F894CC
:1001B000DEBF0FBECDBFDF91CF91089597FB072E15
:1001C00016F4009407D077FD09D00E94F20007FCD6
:1001D00005D03EF4909581959F4F08957095619557
:1001E0007F4F0895AA1BBB1B51E107C0AA1FBB1F6D
:1001F000A617B70710F0A61BB70B881F991F5A95B3
:10020000A9F780959095BC01CD010895B0E0A0E0DC
:10021000ECE0F1E00C94C703AE014B5F5F4FFA01D5
:1002200061917191AF018091D2029091D3020E94AD
:100230004801E2E00C94E3030F931F93CF93DF9305
:10024000E091D202F091D302238110E000E021FD81
:100250000EC00FEF1FEFC801DF91CF911F910F91DB
:1002600008950995892B11F00FEF1FEFCE01EC01D6
:1002700089916091D2027091D302DB011896ED91C1
:10028000FC918111EECF8AE00995892B21F3E1CF12
:10029000ABE0B0E0EEE4F1E00C94B7037C013B018D
:1002A0008A01FC0117821682838181FFB9C19AE01D
:1002B000292ECE0101965C01F7019381F30193FD94
:1002C000859193FF81913F01882309F446C18532CE
:1002D00039F493FD859193FF81913F01853229F493
:1002E000B70190E00E942903E7CF912C412C512CBB
:1002F000FFE1F51538F08B3209F188F4803201F115
:10030000833221F157FC3AC020ED280F2A3040F506
:1003100056FE1FC0929C200D1124922E06C08D32D5
:1003200091F0803379F7689450F8F30193FD85914B
:1003300093FF81913F018111DBCF20C0689451F878
:10034000689452F8F2CF689453F8EFCF689454F859
:10035000ECCF429C200D1124422E689455F8E5CF35
:100360008E3229F456FCF9C0689456F8DECF8C36EC
:1003700019F4689457F8D9CF8836B9F2982F9F7D31
:1003800095549330C0F08336A1F18337C1F18335A2
:1003900009F05BC0F801C190D1908F01692D70E028
:1003A00056FC02C06FEF7FEFC6010E9413034C01A1
:1003B000689457F80AC00C5F1F4F2FE329838824E5
:1003C0008394912C6501E89457F853FC04C04814B9
:1003D000190409F018F5342C8114910431F53320F7
:1003E00009F46ACFB70180E290E00E9429033A94B1
:1003F000F6CFF801808189830E5F1F4FE0CFF801AF
:10040000C190D1908F01692D70E056FC02C06FEF52
:100410007FEFC6010E941E034C01D5CFB70180E2D9
:1004200090E00E9429034A94D2CFF60157FC8591AF
:1004300057FE81916F01B70190E00E9429033110AE
:100440003A94F1E08F1A9108C7CF843619F08936B3
:1004500009F074C0F80157FE6AC0619171918191F1
:1004600091918F01252D2F76D22E97FF09C090955F
:100470008095709561957F4F8F4F9F4F6894D7F807
:100480002AE030E0A5010E945903C82ECA188C2C1E
:100490005D2CD6FE0CC0E89450F8C91440F4D4FE8C
:1004A00005C0D2FC03C0FD2DFE7E5F2E892C54FEBC
:1004B0008FC0FE01EC0DF11D8081803309F081C0F9
:1004C000252D297E522E852D8870382E53FC8FC005
:1004D00050FE89C09C2C841418F44C0C942C981851
:1004E00054FE8BC0B70180E390E00E94290352FEC6
:1004F00009C088E790E051FE02C088E590E0B701AE
:100500000E942903C91408F484C0CA94D12C9FEF17
:10051000C91AD90ACA0CDB1CF60182916F01B70116
:1005200090E00E942903AC14BD04B1F758CF61914B
:100530007191072E000C880B990B93CFD52CE89462
:10054000D4F82AE030E0853739F1952D997FD92EFE
:100550008F3601F148F48835A9F0F701868197813B
:100560002B96E2E10C94D303803749F08837A9F742
:10057000D4FE02C06894D2F820E130E00DC0689447
:10058000D4F8F6CF54FE03C0E92FE660DE2E20E15A
:1005900032E002C028E030E0F801D7FE0DC06191E2
:1005A0007191819191918F01A5010E945903C82EEB
:1005B000CA18E894D7F86BCF6191719190E080E010
:1005C000F2CF52FC02C083947ECF839483947BCF7E
:1005D000852D867809F477CFF6CFB70180E290E0D9
:1005E0000E94290383948414C0F3312C79CF342CD6
:1005F0003818841408F474CFF8CF852D867809F460
:1006000081CF8BE251FE80E257FC8DE2B70190E092
:1006100077CFB70180E390E00E9429039A9472CFCC
:100620008FEF9FEF9DCFFC0105906150704001104E
:10063000D8F7809590958E0F9F1F0895FC0161500B
:10064000704001900110D8F7809590958E0F9F1FF4
:1006500008950F931F93CF93DF93182F092FEB016A
:100660008B8181FD09C01FEF0FEF812F902FDF914C
:10067000CF911F910F91089582FF14C02E813F8169
:100680008C819D81281739073CF4E881F981CF01DD
:1006900001969983888310838E819F8101969F8321
:1006A0008E83E3CFE885F985812F0995892BA1F306
:1006B000DACFFA01AA27283051F1203181F1E894EC
:1006C0006F936E7F6E5F7F4F8F4F9F4FAF4FB1E045
:1006D0003ED0B4E03CD0670F781F891F9A1FA11D40
:1006E000680F791F8A1F911DA11D6A0F711D811D41
:1006F000911DA11D20D009F468943F912AE0269F06
:1007000011243019305D3193DEF6CF010895462F64
:100710004770405D4193B3E00FD0C9F7F6CF462F45
:100720004F70405D4A3318F0495D31FD40524193AE
:1007300002D0A9F7EACFB4E0A6959795879577956B
:100740006795BA95C9F700976105710508959B01F2
:10075000AC010A2E06945795479537952795BA957B
:10076000C9F7620F731F841F951FA01D08952F9254
:100770003F924F925F926F927F928F929F92AF9231
:10078000BF92CF92DF92EF92FF920F931F93CF937E
:10079000DF93CDB7DEB7CA1BDB0B0FB6F894DEBF15
:1007A0000FBECDBF09942A88398848885F846E843B
:1007B0007D848C849B84AA84B984C884DF80EE8085
:1007C000FD800C811B81AA81B981CE0FD11D0FB68E
:1007D000F894DEBF0FBECDBFED010895F894FFCFB2
:1007E00015000001010000000001000000000000F1
:1007F00000000000000000010001010000000000F6
:1008000000000000000000000000000001010000E6
:1008100000000100000000000000000000000000D7
:1008200000000100000101000000000000000000C5
:1008300000000000000000000001000100000000B6
:1008400000000000000000000000010000000101A5
:100850000001000000000000000000000000000097
:100860000000010000010000000001000000000085
:100870000000000000010000000000000001010075
:100880000000000000000000000000000000000068
:100890000001000100000100000000000000000055
:1008A0000000000000000101000100000000000045
:1008B0000000000000000000000001000001000135
:1008C0000100000000000000000000000000000027
:1008D0000000000100000101000000000000000015
:1008E0000000000000000100010000010000000005
:1008F00000000000000000000000000000000101F6
:1009000000000100000000000000000000000000E6
:1009100000000001000000000100000001000000D4
:1009200000000000000000000000010000010100C4
:1009300000000000000000000000000000000000B7
:1009400001010001010100000000000000000000A2
:100950000000000000000101000100000000000094
:100960000000000000000000000000000101000184
:100970000000000000000000000000000000000077
:100980000001000100010000000001000000000063
:100990000000000001000000000100B9014E6F647A
:1009A000652025643A205B200025642C20005D0032
:00000001FF
